{
  "_format": "hh-sol-artifact-1",
  "contractName": "Feedback",
  "sourceName": "contracts/Feedback.sol",
  "abi": [
    {
      "inputs": [
        {
          "internalType": "address",
          "name": "_owner",
          "type": "address"
        }
      ],
      "stateMutability": "nonpayable",
      "type": "constructor"
    },
    {
      "anonymous": false,
      "inputs": [
        {
          "indexed": true,
          "internalType": "uint256",
          "name": "createdAt",
          "type": "uint256"
        },
        {
          "indexed": true,
          "internalType": "uint256",
          "name": "_rate",
          "type": "uint256"
        },
        {
          "indexed": false,
          "internalType": "string",
          "name": "_user",
          "type": "string"
        },
        {
          "indexed": false,
          "internalType": "string",
          "name": "_message",
          "type": "string"
        }
      ],
      "name": "OnNewFeed",
      "type": "event"
    },
    {
      "anonymous": false,
      "inputs": [
        {
          "indexed": true,
          "internalType": "uint256",
          "name": "createdAt",
          "type": "uint256"
        },
        {
          "indexed": true,
          "internalType": "uint256",
          "name": "index",
          "type": "uint256"
        }
      ],
      "name": "OnNewResponse",
      "type": "event"
    },
    {
      "inputs": [
        {
          "internalType": "uint256",
          "name": "_rate",
          "type": "uint256"
        },
        {
          "internalType": "string",
          "name": "_message",
          "type": "string"
        },
        {
          "internalType": "string",
          "name": "_user",
          "type": "string"
        }
      ],
      "name": "createFeed",
      "outputs": [],
      "stateMutability": "nonpayable",
      "type": "function"
    },
    {
      "inputs": [
        {
          "internalType": "uint256",
          "name": "_index",
          "type": "uint256"
        },
        {
          "internalType": "string",
          "name": "_message",
          "type": "string"
        }
      ],
      "name": "createResponse",
      "outputs": [],
      "stateMutability": "nonpayable",
      "type": "function"
    },
    {
      "inputs": [
        {
          "internalType": "uint256",
          "name": "",
          "type": "uint256"
        }
      ],
      "name": "feeds",
      "outputs": [
        {
          "internalType": "uint256",
          "name": "rate",
          "type": "uint256"
        },
        {
          "internalType": "uint256",
          "name": "id",
          "type": "uint256"
        },
        {
          "internalType": "uint256",
          "name": "createdAt",
          "type": "uint256"
        },
        {
          "internalType": "string",
          "name": "message",
          "type": "string"
        },
        {
          "internalType": "string",
          "name": "user",
          "type": "string"
        },
        {
          "components": [
            {
              "internalType": "uint256",
              "name": "createdAt",
              "type": "uint256"
            },
            {
              "internalType": "string",
              "name": "message",
              "type": "string"
            }
          ],
          "internalType": "struct Feedback.Response",
          "name": "response",
          "type": "tuple"
        }
      ],
      "stateMutability": "view",
      "type": "function"
    },
    {
      "inputs": [],
      "name": "getAllFeeds",
      "outputs": [
        {
          "components": [
            {
              "internalType": "uint256",
              "name": "rate",
              "type": "uint256"
            },
            {
              "internalType": "uint256",
              "name": "id",
              "type": "uint256"
            },
            {
              "internalType": "uint256",
              "name": "createdAt",
              "type": "uint256"
            },
            {
              "internalType": "string",
              "name": "message",
              "type": "string"
            },
            {
              "internalType": "string",
              "name": "user",
              "type": "string"
            },
            {
              "components": [
                {
                  "internalType": "uint256",
                  "name": "createdAt",
                  "type": "uint256"
                },
                {
                  "internalType": "string",
                  "name": "message",
                  "type": "string"
                }
              ],
              "internalType": "struct Feedback.Response",
              "name": "response",
              "type": "tuple"
            }
          ],
          "internalType": "struct Feedback.Feed[]",
          "name": "",
          "type": "tuple[]"
        }
      ],
      "stateMutability": "view",
      "type": "function"
    },
    {
      "inputs": [
        {
          "internalType": "uint256",
          "name": "_index",
          "type": "uint256"
        }
      ],
      "name": "getFeed",
      "outputs": [
        {
          "internalType": "uint256",
          "name": "rate",
          "type": "uint256"
        },
        {
          "internalType": "uint256",
          "name": "id",
          "type": "uint256"
        },
        {
          "internalType": "uint256",
          "name": "createdAt",
          "type": "uint256"
        },
        {
          "internalType": "string",
          "name": "message",
          "type": "string"
        },
        {
          "internalType": "string",
          "name": "user",
          "type": "string"
        },
        {
          "components": [
            {
              "internalType": "uint256",
              "name": "createdAt",
              "type": "uint256"
            },
            {
              "internalType": "string",
              "name": "message",
              "type": "string"
            }
          ],
          "internalType": "struct Feedback.Response",
          "name": "response",
          "type": "tuple"
        }
      ],
      "stateMutability": "view",
      "type": "function"
    },
    {
      "inputs": [],
      "name": "getFeedsCount",
      "outputs": [
        {
          "internalType": "uint256",
          "name": "",
          "type": "uint256"
        }
      ],
      "stateMutability": "view",
      "type": "function"
    },
    {
      "inputs": [],
      "name": "owner",
      "outputs": [
        {
          "internalType": "address",
          "name": "",
          "type": "address"
        }
      ],
      "stateMutability": "view",
      "type": "function"
    }
  ],
  "bytecode": "0x60a06040523480156200001157600080fd5b50604051620017ed380380620017ed8339818101604052810190620000379190620000ff565b600073ffffffffffffffffffffffffffffffffffffffff168173ffffffffffffffffffffffffffffffffffffffff161415620000aa576040517f08c379a0000000000000000000000000000000000000000000000000000000008152600401620000a1906200016d565b60405180910390fd5b8073ffffffffffffffffffffffffffffffffffffffff1660808173ffffffffffffffffffffffffffffffffffffffff1660601b8152505050620001ee565b600081519050620000f981620001d4565b92915050565b6000602082840312156200011257600080fd5b60006200012284828501620000e8565b91505092915050565b60006200013a600d836200018f565b91507f496e76616c6964206f776e6572000000000000000000000000000000000000006000830152602082019050919050565b6000602082019050818103600083015262000188816200012b565b9050919050565b600082825260208201905092915050565b6000620001ad82620001b4565b9050919050565b600073ffffffffffffffffffffffffffffffffffffffff82169050919050565b620001df81620001a0565b8114620001eb57600080fd5b50565b60805160601c6115d962000214600039600081816105df015261077e01526115d96000f3fe608060405234801561001057600080fd5b506004361061007d5760003560e01c80638930fd151161005b5780638930fd15146100f35780638da5cb5b1461010f578063dda4a5a61461012d578063ecb76d90146101495761007d565b806311372e421461008257806312876798146100a05780634a5479f3146100be575b600080fd5b61008a61017e565b60405161009791906113a5565b60405180910390f35b6100a861018a565b6040516100b591906112c8565b60405180910390f35b6100d860048036038101906100d39190610e17565b6103db565b6040516100ea969594939291906113c0565b60405180910390f35b61010d60048036038101906101089190610e40565b6105dd565b005b61011761077c565b60405161012491906112ad565b60405180910390f35b61014760048036038101906101429190610e98565b6107a0565b005b610163600480360381019061015e9190610e17565b6109ad565b604051610175969594939291906113c0565b60405180910390f35b60008080549050905090565b60606000805480602002602001604051908101604052809291908181526020016000905b828210156103d257838290600052602060002090600702016040518060c00160405290816000820154815260200160018201548152602001600282015481526020016003820180546101ff9061151a565b80601f016020809104026020016040519081016040528092919081815260200182805461022b9061151a565b80156102785780601f1061024d57610100808354040283529160200191610278565b820191906000526020600020905b81548152906001019060200180831161025b57829003601f168201915b505050505081526020016004820180546102919061151a565b80601f01602080910402602001604051908101604052809291908181526020018280546102bd9061151a565b801561030a5780601f106102df5761010080835404028352916020019161030a565b820191906000526020600020905b8154815290600101906020018083116102ed57829003601f168201915b50505050508152602001600582016040518060400160405290816000820154815260200160018201805461033d9061151a565b80601f01602080910402602001604051908101604052809291908181526020018280546103699061151a565b80156103b65780601f1061038b576101008083540402835291602001916103b6565b820191906000526020600020905b81548152906001019060200180831161039957829003601f168201915b50505050508152505081525050815260200190600101906101ae565b50505050905090565b600081815481106103eb57600080fd5b90600052602060002090600702016000915090508060000154908060010154908060020154908060030180546104209061151a565b80601f016020809104026020016040519081016040528092919081815260200182805461044c9061151a565b80156104995780601f1061046e57610100808354040283529160200191610499565b820191906000526020600020905b81548152906001019060200180831161047c57829003601f168201915b5050505050908060040180546104ae9061151a565b80601f01602080910402602001604051908101604052809291908181526020018280546104da9061151a565b80156105275780601f106104fc57610100808354040283529160200191610527565b820191906000526020600020905b81548152906001019060200180831161050a57829003601f168201915b50505050509080600501604051806040016040529081600082015481526020016001820180546105569061151a565b80601f01602080910402602001604051908101604052809291908181526020018280546105829061151a565b80156105cf5780601f106105a4576101008083540402835291602001916105cf565b820191906000526020600020905b8154815290600101906020018083116105b257829003601f168201915b505050505081525050905086565b7f000000000000000000000000000000000000000000000000000000000000000073ffffffffffffffffffffffffffffffffffffffff163373ffffffffffffffffffffffffffffffffffffffff161461066b576040517f08c379a000000000000000000000000000000000000000000000000000000000815260040161066290611385565b60405180910390fd5b8261067581610c06565b60008085815481106106b0577f4e487b7100000000000000000000000000000000000000000000000000000000600052603260045260246000fd5b90600052602060002090600702019050604051806040016040528042815260200185858080601f016020809104026020016040519081016040528093929190818152602001838380828437600081840152601f19601f8201169050808301925050505050505081525081600501600082015181600001556020820151816001019080519060200190610743929190610cfb565b5090505084427f1f86d07fba10a954f0ff1a2762d0ab1dca18ead7a54855e3cf0f8476dfb0786d60405160405180910390a35050505050565b7f000000000000000000000000000000000000000000000000000000000000000081565b846107aa81610c5d565b84846107b68282610cb1565b84846107c28282610cb1565b6000604051806040016040528042815260200160405180602001604052806000815250815250905060006040518060c001604052808d815260200160008054905081526020014281526020018c8c8080601f016020809104026020016040519081016040528093929190818152602001838380828437600081840152601f19601f8201169050808301925050505050505081526020018a8a8080601f016020809104026020016040519081016040528093929190818152602001838380828437600081840152601f19601f8201169050808301925050505050505081526020018381525090506000819080600181540180825580915050600190039060005260206000209060070201600090919091909150600082015181600001556020820151816001015560408201518160020155606082015181600301908051906020019061090e929190610cfb565b50608082015181600401908051906020019061092b929190610cfb565b5060a08201518160050160008201518160000155602082015181600101908051906020019061095b929190610cfb565b50505050508b427f1678fe76002e572456d0b14b316db83f8108658cfe2a571bef48489675e465b78b8b8f8f60405161099794939291906112ea565b60405180910390a3505050505050505050505050565b60008060006060806109bd610d81565b866109c781610c06565b6000808981548110610a02577f4e487b7100000000000000000000000000000000000000000000000000000000600052603260045260246000fd5b90600052602060002090600702019050806000015481600101548260020154836003018460040185600501828054610a399061151a565b80601f0160208091040260200160405190810160405280929190818152602001828054610a659061151a565b8015610ab25780601f10610a8757610100808354040283529160200191610ab2565b820191906000526020600020905b815481529060010190602001808311610a9557829003601f168201915b50505050509250818054610ac59061151a565b80601f0160208091040260200160405190810160405280929190818152602001828054610af19061151a565b8015610b3e5780601f10610b1357610100808354040283529160200191610b3e565b820191906000526020600020905b815481529060010190602001808311610b2157829003601f168201915b505050505091508060405180604001604052908160008201548152602001600182018054610b6b9061151a565b80601f0160208091040260200160405190810160405280929190818152602001828054610b979061151a565b8015610be45780601f10610bb957610100808354040283529160200191610be4565b820191906000526020600020905b815481529060010190602001808311610bc757829003601f168201915b5050505050815250509050975097509750975097509750505091939550919395565b60008110158015610c1b575060008054905081105b610c5a576040517f08c379a0000000000000000000000000000000000000000000000000000000008152600401610c5190611325565b60405180910390fd5b50565b60008110158015610c6f575060058111155b610cae576040517f08c379a0000000000000000000000000000000000000000000000000000000008152600401610ca590611365565b60405180910390fd5b50565b60008282905011610cf7576040517f08c379a0000000000000000000000000000000000000000000000000000000008152600401610cee90611345565b60405180910390fd5b5050565b828054610d079061151a565b90600052602060002090601f016020900481019282610d295760008555610d70565b82601f10610d4257805160ff1916838001178555610d70565b82800160010185558215610d70579182015b82811115610d6f578251825591602001919060010190610d54565b5b509050610d7d9190610d9b565b5090565b604051806040016040528060008152602001606081525090565b5b80821115610db4576000816000905550600101610d9c565b5090565b60008083601f840112610dca57600080fd5b8235905067ffffffffffffffff811115610de357600080fd5b602083019150836001820283011115610dfb57600080fd5b9250929050565b600081359050610e118161158c565b92915050565b600060208284031215610e2957600080fd5b6000610e3784828501610e02565b91505092915050565b600080600060408486031215610e5557600080fd5b6000610e6386828701610e02565b935050602084013567ffffffffffffffff811115610e8057600080fd5b610e8c86828701610db8565b92509250509250925092565b600080600080600060608688031215610eb057600080fd5b6000610ebe88828901610e02565b955050602086013567ffffffffffffffff811115610edb57600080fd5b610ee788828901610db8565b9450945050604086013567ffffffffffffffff811115610f0657600080fd5b610f1288828901610db8565b92509250509295509295909350565b6000610f2d838361117e565b905092915050565b610f3e8161149c565b82525050565b6000610f4f82611446565b610f598185611469565b935083602082028501610f6b85611436565b8060005b85811015610fa75784840389528151610f888582610f21565b9450610f938361145c565b925060208a01995050600181019050610f6f565b50829750879550505050505092915050565b6000610fc5838561148b565b9350610fd28385846114d8565b610fdb8361157b565b840190509392505050565b6000610ff182611451565b610ffb818561147a565b935061100b8185602086016114e7565b6110148161157b565b840191505092915050565b600061102a82611451565b611034818561148b565b93506110448185602086016114e7565b61104d8161157b565b840191505092915050565b6000611065602f8361148b565b91507f5468697320696e646578206973206f757473696465206f662074686520626f7560008301527f6e64206f662074686520617272617900000000000000000000000000000000006020830152604082019050919050565b60006110cb601a8361148b565b91507f54686520737472696e672063616e6e6f7420626520656d7074790000000000006000830152602082019050919050565b600061110b60208361148b565b91507f5468652072617465206d757374206265206265747765656e203020616e6420356000830152602082019050919050565b600061114b60198361148b565b91507f4f6e6c7920746865206f776e65722063616e207265706c792e000000000000006000830152602082019050919050565b600060c083016000830151611196600086018261128f565b5060208301516111a9602086018261128f565b5060408301516111bc604086018261128f565b50606083015184820360608601526111d48282610fe6565b915050608083015184820360808601526111ee8282610fe6565b91505060a083015184820360a08601526112088282611215565b9150508091505092915050565b600060408301600083015161122d600086018261128f565b50602083015184820360208601526112458282610fe6565b9150508091505092915050565b600060408301600083015161126a600086018261128f565b50602083015184820360208601526112828282610fe6565b9150508091505092915050565b611298816114ce565b82525050565b6112a7816114ce565b82525050565b60006020820190506112c26000830184610f35565b92915050565b600060208201905081810360008301526112e28184610f44565b905092915050565b60006040820190508181036000830152611305818688610fb9565b9050818103602083015261131a818486610fb9565b905095945050505050565b6000602082019050818103600083015261133e81611058565b9050919050565b6000602082019050818103600083015261135e816110be565b9050919050565b6000602082019050818103600083015261137e816110fe565b9050919050565b6000602082019050818103600083015261139e8161113e565b9050919050565b60006020820190506113ba600083018461129e565b92915050565b600060c0820190506113d5600083018961129e565b6113e2602083018861129e565b6113ef604083018761129e565b8181036060830152611401818661101f565b90508181036080830152611415818561101f565b905081810360a08301526114298184611252565b9050979650505050505050565b6000819050602082019050919050565b600081519050919050565b600081519050919050565b6000602082019050919050565b600082825260208201905092915050565b600082825260208201905092915050565b600082825260208201905092915050565b60006114a7826114ae565b9050919050565b600073ffffffffffffffffffffffffffffffffffffffff82169050919050565b6000819050919050565b82818337600083830152505050565b60005b838110156115055780820151818401526020810190506114ea565b83811115611514576000848401525b50505050565b6000600282049050600182168061153257607f821691505b602082108114156115465761154561154c565b5b50919050565b7f4e487b7100000000000000000000000000000000000000000000000000000000600052602260045260246000fd5b6000601f19601f8301169050919050565b611595816114ce565b81146115a057600080fd5b5056fea2646970667358221220246e3502bf5472d073c4dc61f3dbd86cb4adb2aa58e640d471fe6d47f2f43ef564736f6c63430008000033",
  "linkReferences": {},
  "deployedLinkReferences": {}
}